:100000000C94230A0C94330A0C94330A0C94330A8C
:100010000C94330A0C94330A0C94330A0C94330A6C
:100020000C94330A0C94330A0C94290E0C94330A62
:100030000C94330A0C94330A0C94330A0C94330A4C
:100040000C94330A0C94330A0C94330A0C94330A3C
:100050000C94330A0C94330A0C94330A0C94330A2C
:100060000C94330A0C94330A0C94330A0C94330A1C
:100070000C94330A0C94330A0C94330A0C94330A0C
:100080000C94330A0C94330A0C94330A0C94330AFC
:100090000C94330A0C94330A0C94330A0C94330AEC
:1000A0000C94330A0C94330A0C94330A2403500042
:1000B0004F004B004B0045004E00200043004F0016
:1000C0004E00540052004F004C004C0045005200BE
:1000D00000001C0348004F0052004900200043006C
:1000E0004F002E002C004C00540044002E00000055
:1000F000040309040902290001010080FA0904002F
:10010000000203000000092111010001225600072E
:1001100005020340000507058103400005120100A8
:1001200002000000400D0F920000010102000105D5
:10013000010905A10115002501350045017501954D
:1001400010050919012910810205012507463B0107
:100150007504950165140939814265009501810195
:1001600026FF0046FF0009300931093209357508BC
:10017000950481020600FF0920950181020A2126CB
:1001800095089102C000000000000000000000126D
:1001900000001000000000D0AAF7FFFDFFFFFF776E
:1001A000FBFFFFFFFDDFB6150000000000000000B0
:1001B000000000000000005555A54A92AAAA9434F8
:1001C000F56EAB566B6DDBAEAD6DDBB6B7B66D1BCA
:1001D0000000000000000000000000000000C0025D
:1001E00000101108000040EB5FDBFEFFFFBFFFFBCC
:1001F000D6FEFFFFFA6F550D000000000000000062
:100200000000000000002048925448A12449AAAEF2
:10021000EAFEB56DADF556DF6FDBAAAAAFDD6D1B4B
:100220000000000000000000000000000000182195
:10023000080B020440107D55DBD7FFFFFFDFFF7581
:10024000DBF6FFFFFD7BDB36000000000000000056
:10025000000000000000468462A090900AD5CBDA2E
:10026000B67FAB5ADBF6DAFFBF2DB76DB7EE553D63
:1002700000000000000000000000000000800210EC
:10028000900A044220B45A6BFDD5FFFFF7BF7FAD43
:1002900056D5FAFBFDBB6B6B0000000000000000B0
:1002A00000000000002048450A52521482ABAADE2A
:1002B0006FFFF6D6BEEAD5FFFFB66FDFD7FEDEDAF8
:1002C000000000000000000000000000008002802C
:1002D000A4040181686DDB6ADDEFDFFFFB7FFFB601
:1002E0006D5BF57DFFD753F70100000000000000B3
:1002F000000000000050901491282424525BB5FFA8
:10030000F7BDFDADADDDB7FFFF755FD7AD7EBFAA11
:10031000020000000000000000000000002242A0D7
:1003200024818040AF6AEBAAFFEFB7FFFFF7FE55CD
:10033000D5AFFAFEFFDBD5D60300000000000000B9
:10034000000000000088280D494A2AAA6ADDBEFD87
:10035000BF7DFFDE6DBF6BFF7FEDEA5DD57EBFAD7C
:1003600003000000000000000000000000148A509C
:10037000120000D8AAAAD5F6F6F7D57BFFEDFFBB91
:10038000DB5FD7FBFFEBFBBA0E00000000000000B4
:100390000000000040A5248B445249B7AA77BDDD78
:1003A000FF5F7FDF577F6DEFFEB65AB75BBFADD7FC
:1003B0001E00000000000000000000000011C92421
:1003C00009015055B5AA6B6BDDFEF7FDFFEBFFFD94
:1003D000B7FFB6EDFEEDFFAD3700000000000000F6
:1003E00000000000404A52485294AAADD66FD5DEB4
:1003F000FFFFBFB7FDBFADB76DD555BFB7BBB67F6C
:100400007D0000000000000000000000A090142506
:10041000010075ABB5DABEB5EDF6EFFF6FFBFF7E01
:10042000DB6DDBED7DEFEFAAFE00000000000000B9
:10043000000000002025894894D2AE6AADBA6BEB6B
:10044000BFBFFDEEFEAFDAEBB7B6B6B6EF7ABDBF13
:10045000D50100000000000000000000A84822258F
:1004600001A855556B6BDBFEEAEDFFFB77FB7FBF09
:100470006EDBADDDBEEFF76DFF0300000000000096
:1004800000000000101191105269B5ADDAD6B6B572
:100490005FFFEEBFFDDFEDEDDF76BBF6F5BA5DBFCA
:1004A0005A07000000000000000000005422244A07
:1004B0000056ABDA565DEFFFFFB67FFF6FFBBFFF65
:1004C0006DDBB65DDFEFFFD5F50F0000000000002B
:1004D0000000000084484981AADA5AB5B5F575DBF9
:1004E000EDFDDBEFFEBF6B7DDFB6EDF6F7BAAAB729
:1004F0007E0F000000000000000000002222222ADF
:10050000C4B5D656AD56FF7F7FDFFFFDD7EEDEF6D2
:10051000BF6DFBDFBEF7FFAAD51D00000000000085
:10052000000000008988884031ABAAEDEAFFDFEEC9
:10053000DBF576AFFDFBFFDFFBDBB67DFB5DAD776B
:10054000FB1F000000000000000000001111522AF3
:10055000D2AE5A5B77F7F6FFB6EEFFFF7FFFBBF731
:10056000EEB6EDD76FEF7BADB63E000000000000A9
:1005700000000080A4A40890B4D5F6EEFDBDFFED08
:100580006D5BDBB5EDB7FEFDFF6D7BFFDA5BEFDB8F
:10059000FD0F00000000000000000020100A45458B
:1005A000AA55AFFFDFFFDBBFDBB67FFF77FFEFBFF3
:1005B000BBB7DDED77FFBA6FAB1D00000000000098
:1005C00000000020A5200910EDAAFDBB75B77FFB38
:1005D0006F6BED6FFDD5BEFBFFFFF7BFEAFDFFFAC6
:1005E000FF0F00000000000000000010124D2285E7
:1005F0005A75DBEEFFFDEE7FBBDDFBFD6FFFEBDE33
:100600006EDBBEAA5DB7ED5F6D0700000000000065
:100610000000004804924448B5AAF77FDBEFFBEDE9
:10062000DFB6B6B7FBBBFFFFFFFFF76DEBFDBFF615
:10063000FF0300000000000000000080A2AA1225B5
:10064000ADEABBED7F7BBFFFB66DFDFEDEEE5A7BF4
:10065000DBFEDDDA5AEFEA7FFB010000000000005C
:10066000000000144945A45057FDF7BFEDFFFFEF10
:100670006BDBD7ABF7BFFFEFFF5BFFBFD6FB7FDBCB
:100680003F00000000000000000000A2A0A812250A
:1006900055A556F57FEF76BDDF7E7FFFBDFAED7E77
:1006A000ABFE6FD5B5DDF6EF1F00000000000000C7
:1006B0000000004424252992AA5AEFBFEDFBDFEF8A
:1006C000EDF5EDDDEFAFBBDFFFEFFBFF6BF75DFDA2
:1006D000070000000000000000000029584A4AA955
:1006E00092EFDEEFFFBEFDFDBFAEBF777B75EDFB8A
:1006F0007A7BBFDDDEDEFBBF0100000000000000F2
:100700000000001389A892A46AFD5FFBEEEFEFB72B
:100710006AFBEAFDDDAF5BAFDFFFF7F75577ED0F63
:100720000000000000000000000080052A4B2A6A3B
:10073000AD55B5BFBBFD7BFFDDD77FAF777BFDFD43
:10074000FF6DBFBEFBDDFF000000000000000000E9
:10075000000040D0A6A4925AEBFEFFF6FF77FF5BA5
:10076000B77DDBFBFEEF6FB76DFFEDF7D5BE0F007A
:10077000000000000000000000006097484A4A7531
:1007800055DDADDFB6DEEFFEEDDEFFBEB77DFBFF74
:10079000FFB7FFDDFEEB0B000000000000000000D3
:1007A0000000A02092A8145B6DF7FFFDFDFBBEEFDB
:1007B000BFF7B6F7FDDFBF75DDFDBDF7B5DE16008F
:1007C000000000000000000000005049A14AA5DE22
:1007D0002ABFF6B7AFEFFB7BFBBDFFBDDFF7F7DF4F
:1007E000F7EFF77DFBBB0F000000000000000000EA
:1007F00000002852449584AA9AEDDFFEFBBEDFFF7D
:100800006FEFD5EF7B7FDD467F7FBFDF5ED71A00BE
:100810000000000000000000000054295522A9AD8E
:10082000B579FBDBFEFBF656FD7B7F7BEFDDFF80C2
:10083000DDFBEDFB77BD1D000000000000000000A7
:100840000000249292AC426DCD42AFFEDFEFBFFFBD
:10085000D7DEF7DFFBF71512F7D7FBBEDD561B001F
:1008600000000000000000000000C82AA99294AA1D
:10087000BA9450AB7D7FEBFBFFF7DDF6BE5F4540E2
:100880007E7DBFEFB7ED3E000000000000000000DD
:1008900000002849AA2AA555BD20AAD4D7F5FFDE15
:1008A000DE7E7FBFFF120012D8EBFB7BFF5A1B00DE
:1008B0000000000000000000000050929252A9B613
:1008C0006F4D0195FE5FDDFFFBB7EBEDB7829480C6
:1008D000FC57DFFFD5F63F000000000000000000DD
:1008E0000000A02A544AAAAA4A12AA52BDFD776B58
:1008F000B7EEBEFF0D100024D8FEFB6E7FAB1600D6
:10090000000000000000000000004094A5905A552F
:10091000B7A09214E8EFFFDFDDBDEB2F4084241178
:10092000FAABBEFBF7DE3F00000000000000000055
:1009300000008020AAD6EEB663AA2A0981FADEF664
:10094000F7D75F0001200084ACEDF7DFDEB50D00C6
:10095000000000000000000000000085CA95A86AA1
:10096000B56DFF421000F57F7F2900001001490F8F
:10097000FCDBDEF77BEF070000000000000000005A
:100980000000005031B556D579B7D5050412FADD0F
:100990005F4292480008E465D9F63BDCDEFB0200CA
:1009A0000000000000000000000000204D95AAADEE
:1009B000FAEEBE5F4080BCFF2D080000EAFE7F2BF0
:1009C000F85F4FA1FDDF0300000000000000000001
:1009D000000000AEAA2AB5AAACBAEB3E1224F87504
:1009E000070200F2BFF7DD0D6EF5950AB29A00001E
:1009F0000000000000000000000080A8AA52A876B5
:100A000055D77EEB01016ADF83402AFDD6BFFF4246
:100A1000FCFF2AB1442B020000000000000000008F
:100A20000000A0ABAA2A59D54EBEDB7F4380F477E5
:100A30001010C15F7BFD5710DBBE504A55F4150006
:100A4000000000000000000000005B6A5509D56A44
:100A5000567077D50914405D0449B4ED6FC30201A7
:100A6000BE2F8A10A04AFF05000000000000000011
:100A70000080AA555552AFBD9EC4DD7F8300110290
:100A8000A124F4BFAAC41744EA9520850A90507A9D
:100A90000000000000000000006855AA4A65B72A5F
:100AA000B510FEED102000201049DFF580CA45107A
:100AB0007E030A2280028250050000000000000030
:100AC000005D55955471AFB69E054015410224094D
:100AD000A5A0F5AA62E51301AB5540082228080439
:100AE0002900000000000000805355251568DB9A9E
:100AF000352909400A08014008F17E75516B05A4AB
:100B0000FD800482008022215700000000000000C8
:100B10007095AA540B38AFBE1642F6955442A804FD
:100B2000A5D84FA26DF5A1802B2A202024094008CA
:100B3000B8000000000000004FAA24A90078576DFB
:100B4000B5B67F2F9100029010B895DA5ADA084AAC
:100B50001D01090001200942E000000000000080A2
:100B60005149552D006D6DB7EFEADEFB25949004D9
:100B7000A5D4AAB6857A2240439080249002201101
:100B80005202000000000000A637550500BDAE7BF4
:100B9000BBDFF7FFAF0202A0086E5655AF6A88129E
:100BA0000840220002A80A84B000000000000000F3
:100BB00000008000806EDF5CFDFA7FBB5F91480221
:100BC000253AACCA4AFD2300008400482001402099
:100BD000440000000000000000001000807756FF75
:100BE000D55781D6FA0600A0809AA8905ABE8E4AA0
:100BF000425084000224120511040000000000008D
:100C000000000000F05EAD6E55EA012AAD2F090824
:100C10008006D00A872739001020114248804050B2
:100C2000430000000000000000000000AC6BB75B58
:100C3000DB4A93AC7A554002242281D2EA08401262
:100C4000040A8010022504220400000000000000B5
:100C500000000000FE7E6DBFAA2A0F55522C000036
:100C6000804A0024B5A20A408050128010005154DE
:100C7000010000000000000000000080ABABAE658A
:100C80005B552C88FAF9084080A22D402D04A00A5B
:100C9000118000094012840A0000000000000000DA
:100CA000000000C0FE7EDB5AB5A532B19686430235
:100CB000124FF5DE4A5105400414242005C0B0024D
:100CC0000000000000000000000000E0ABD5B7D637
:100CD000565A2544A455AA9400AAADA9020450125C
:100CE0008048000190B416000000000000000000E1
:100CF000000000B0FE7ED5AAAA22C8A0550ADA2BB1
:100D0000450012022851020021244924014A000012
:100D10000000000000000000000000F8ABF75A6B74
:100D2000D54A9501AA9A8254092140A88003499581
:100D300014090000B40000000000000000000000E2
:100D4000000000547F5BAB9A3894200380EA542261
:100D500042880A012A542040425212910A0000009F
:100D60000000000000000000000000F8EABF765319
:100D70008B225546205400080000202401010A91CE
:100D800000044040220000000000000000000000BD
:100D9000000000D6BFD6AAACA49484BFAF9B9280BB
:100DA00008499240484840240029091435000000B1
:100DB0000000000000000000000080BDDAABAD6A5A
:100DC0004922D1D6FB2208124000000A111109580D
:100DD0002452D0D30A0000000000000000000000F0
:100DE0000000F8F7F76E55359254D20B2D494100AB
:100DF0000148522004042229801472553500000055
:100E0000000000000000000000005C6DBD55954A28
:100E10002581E4544094082508010089A0A0000C15
:100E20000289485515000000000000000000000085
:100E30000000F6FF7755AD15482A218112214200A6
:100E4000409024200202941A482A82AA1A00000024
:100E500000000000000000000000AF5AADFA4AAAEE
:100E60009254155448541088000400094828411829
:100E70000141A96A15000000000000000000000008
:100E80000080FDEFB75743A52221252105890202E5
:100E90000480244002009032401454950500000064
:100EA000000000000000000000C0ABBDDABA464AF6
:100EB0005456824A5150410021210009102525290C
:100EC00004A15269010000000000000000000000C1
:100ED0000060FDEBEFD7CA918AA8009604050A10BE
:100EE00000000880008054722008ADDA0200000083
:100EF000000000000000000000F86EBFBA5A054A6A
:100F0000501500A62950808408044120444895D4F7
:100F10004082535501000000000000000000000066
:100F200000A8FBEAB7B58A2A2510404883040900C7
:100F300040200002A92A2DA9136855D50000000001
:100F4000000000000000000000FEDEBF6E0B005835
:100F5000A91A009216005055000108100042DB2625
:100F60008AD2AA5A01000000000000000000000020
:100F700000D5B7EADD1600A4FF16002045290100C0
:100F800012088100B52820ED2220556D00000000D8
:100F90000000000000000000807FFD5F7B05000472
:100FA0000010006A0C0044800040204008828A0043
:100FB0001449486A00000000000000000000000022
:100FC00040D557F54E010003000000803225111274
:100FD00020010804A55420924020915400000000F4
:100FE0000000000000000000E07FFDAFB500000041
:100FF00000100008490000000208025054E10240BD
:10100000150A0221DA4A0400000000000000000076
:1010100050DB57DD5A0000000020002060AD242185
:10102000104280AA2A2D841A8290541400042100B0
:101030000000000000000000F877FD6A17000000C3
:1010400024400042055002848400509552722B5176
:1010500029ADAA15242100000000000000000000B6
:101060006CDD57AF0A000040818080102880BD20D1
:10107000008856A5945455270252550D00000000D3
:101080000000000000000000FEB7BEB50100002A0D
:10109000000308800200609F92A0AA54A59AAA1C8F
:1010A00048A95A1D000000000000000000000000D8
:1010B000AB6A6B2DBA000000031C20E8000000D1D1
:1010C0006F2F292555A95AA9125255170000000063
:1010D00000000000000000C0FFAD554BE1810A0197
:1010E0000028800A000000008854B5AA245A55251B
:1010F00044A9AA0400000000000000000000004015
:101100005B7BB7120447D0000440050000000000DC
:10111000B42A5952495555481169DB0D00000000A9
:1011200000000000000000F0F7D62A0D50340281C4
:1011300000801000000000F04A459A94AA488552A9
:10114000A454350B000000000000000000000068FF
:101150005D6DCD02008910020000A3000000002890
:101160005559A52A49552A2989DAD60E00000000CA
:1011700000000000000000BCB7BBB5000000440840
:101180000900000100000054A94A2A51124A0954DA
:101190005255551D0000000000000000000000EA4C
:1011A000EEAE4A00007E012180040002000000969D
:1011B0009252D1A6D42A422589AA6D2D00000000A2
:1011C00000000000000000BFDD55050000002C8875
:1011D00012000002000000AB24545429954200AADA
:1011E00024B55A1B0000000000000000000080F53C
:1011F0006BDB0A00000080204010000C0000800122
:10120000A99252552508A92A51ADD53A00000000EF
:10121000000000000000C0AFDEB642120000000473
:1012200004050008A04AE250105595A44A4280AA3D
:101230008A6AAD6E0000000000000000000060FD42
:10124000B52D1140000000001000001095D5540A83
:10125000A554521500004455A05A6B5900000000D7
:10126000000000000000F056EF6A82840200400097
:10127000400200402052533420859480204940B5DC
:101280002A5555DB0000000000000000000058FF58
:10129000BAAD1490010104250010000044042A494D
:1012A000852A020804004154A2B6B6BA0100000023
:1012B000000000000000E8ADAF5A45EA00001080D1
:1012C0000A000000A8D01524A85540409024C4ACC2
:1012D00048D555DF02000000000000000000B8FF04
:1012E000D5D61A2800000108A00000000155424987
:1012F00041A510020280902855ADAA7A0300000093
:10130000000000000000FCB6AFB51A9102022021D7
:10131000090AA9002AA99484B4540210200984540B
:10132000A16A6DD701000000000000000000B4FFBA
:10133000BA56AE262810040880200002402A2951FF
:1013400048958280082081555455AB7A07000000EB
:10135000000000000000FCAD6BAD8B884204214111
:1013600012842408AC0A92A495E222048004109A04
:1013700052ADAAED060000000000000000006EFF64
:10138000D65A15512A400004401080028842258A0E
:101390002255012011200534A95255B70B00000039
:1013A000000000000000FAEBADD5448484102491C5
:1013B00004411200A5508850556405010409A0AAF3
:1013C000A4246AED0E000000000000000000DEBE54
:1013D0005A5B29515A0201001004004928B55205F0
:1013E000824A21484040081A295149AB0B000000AD
:1013F000000000000000F6F7B5D612A414519024A6
:1014000041902400AB1425A854520102101021541D
:101410005202AADE1E000000000000000000BF5EB5
:101420006BADA500250402000401000045A5482578
:1014300091A88280044256858854486B370000008A
:1014400000000000000011241FBECFEFDAE0DEBF75
:10145000CDBF21E0A0E0B1E001C01D92A032B207F3
:10146000E1F777D15BC60C94000084B7877F84BF17
:101470000FB6F894A8958091600088618093600011
:10148000109260000FBE80E890E00FB6F894809351
:101490006100909361000FBEBFC30895089542E3B9
:1014A00060EC82E0F7D242E361EC81E0F3C20895A0
:1014B000CF93DF93EC0198E0FE01292F11922A953A
:1014C000E9F780E88B838C838D838E839A83809168
:1014D00008019091090118161906A4F488E0EBE0C0
:1014E000F1E0DE0101900D928A95E1F7809108010B
:1014F0009091090101979093090180930801DF9170
:10150000CF91089580910A01833009F4A4C048F472
:10151000813009F477C008F447C084E080930A0161
:1015200007C0853009F4C1C008F4A0C0863039F383
:1015300080910A01823068F1809104019091050147
:10154000209102013091030148E2429FF001439F44
:10155000F00D11249C0197FF02C0295F3F4F43E02B
:10156000359527954A95E1F7E20FF31FEB57FE4FAC
:10157000E491F0E068E070E0AAD502C0F595E79547
:101580008A95E2F7E0FF05C088819981846099839C
:10159000888388E0FE01ABE0B1E001900D928A956E
:1015A000E1F782E090E0A7CF8091060190910701DA
:1015B000853691058CF0109207011092060181E0AA
:1015C00080930A0180910601909107010196909302
:1015D000070180930601ACCF8931910519F0823360
:1015E000910531F488819981806399838883EACF5A
:1015F0008B34910519F08436910521F78881998102
:101600008460F3CF80910601909107018A3F910594
:10161000F9F4109207011092060110920501109240
:101620000401109203011092020182E080930A01EA
:1016300080910601909107018B34910521F0863944
:10164000910509F0BFCF8881998180619460CDCFE9
:101650001B821C82EDCF809102019091030187379C
:10166000910514F485E05ACF86E058CF80910401AB
:10167000909105012091020120FF11C026E02A83EC
:10168000019790930501809304018091040190914A
:10169000050101978E33914030F482E03FCF22E084
:1016A0002A830196EECF83E039CF84E08A8380914C
:1016B000020190910301019690930301809302012E
:1016C000ECCFCF93DF93CDB7DEB728970FB6F89462
:1016D000DEBF0FBECDBF80911701843089F582E057
:1016E0008093E9008091E80082FF12C08091E800B9
:1016F00085FF09C050E040E067E070E0CE01019650
:10170000BCD08111F7CF8091E8008B778093E800FF
:1017100081E08093E9008091E80080FF11C0CE0154
:101720000196C6DE50E040E068E070E0CE01019630
:1017300056D08111F7CF8091E8008E778093E80032
:1017400028960FB6F894DEBF0FBECDBFDF91CF91C4
:1017500008958BDE7894B5DF9FD4FDCF292F3327F2
:101760002330310521F158F42130310599F0223030
:101770003105C1F090E080E030E020E00FC0213280
:10178000310541F122323105A9F786E590E02FE2DB
:1017900031E004C082E190E02DE131E0FA013183D3
:1017A0002083089589E290E024EF30E0F7CF992775
:1017B0008130910561F028F00297E1F6ECEAF0E063
:1017C00002C0E0EFF0E0849190E09F01E7CFE2ED0E
:1017D000F0E0F9CF89E090E026E031E0DFCFAF9292
:1017E000BF92CF92DF92FF920F931F93CF93DF931D
:1017F0006C01EB018A01A1D1F82E811124C00115E1
:10180000110539F0F80180819181C81BD90BC80EF0
:10181000D91EB12CA12C2097B1F08091E80085FD54
:1018200022C08091E8008E778093E80035D40115BE
:101830001105A1F0F80180819181A80EB91EB18235
:10184000A08285E0F82E8F2DDF91CF911F910F910F
:10185000FF90DF90CF90BF90AF9008956ED1882316
:10186000D1F2F82EF0CFF60181916F018093F10053
:101870002197FFEFAF1ABF0ACECFAF92BF92CF92A0
:10188000DF92FF920F931F93CF93DF936C01EB01D5
:101890008A0153D1F82E811124C00115110539F0A8
:1018A000F80180819181C81BD90BC80ED91EB12CBB
:1018B000A12C2097B1F08091E80085FD22C0809195
:1018C000E8008B778093E800E7D301151105A1F0BC
:1018D000F80180819181A80EB91EB182A08285E0B5
:1018E000F82E8F2DDF91CF911F910F91FF90DF90F8
:1018F000CF90BF90AF90089520D18823D1F2F82ED9
:10190000F0CF8091F100F60181936F012197FFEFF5
:10191000AF1ABF0ACECFFC0180911E0190911F012A
:1019200086179707A0F06115710529F49091E800DA
:101930009E779093E80090E06115710551F4911144
:1019400008C08091E80082FF35C080E00895BC01A6
:10195000F2CF809117018823C9F18530C9F18091B8
:10196000E80083FD31C08091E80082FDEACF8091DC
:10197000E80080FFE1CF2091F3008091F200322F48
:10198000282F6115710519F02034310558F091E0C8
:101990002034310509F090E02091E8002E77209363
:1019A000E800CACF81918093F100615071092F5FE7
:1019B0003F4FE7CF80911701882341F0853041F0F8
:1019C0008091E80083FFBDCF81E0089582E0089513
:1019D00083E00895FC0180911E0190911F018617FC
:1019E0009707A0F06115710529F48091E8008E77C2
:1019F0008093E80090E06115710551F4911108C0E1
:101A00008091E80082FF36C080E00895BC01F2CFEB
:101A1000809117018823D1F18530D1F18091E800C0
:101A200083FD32C08091E80082FDEACF8091E8001A
:101A300080FFE1CF2091F3008091F200322F282F18
:101A40006115710519F02034310558F091E020340A
:101A5000310509F090E08091E8008E778093E800EE
:101A6000CACF84918093F1003196615071092F5F44
:101A70003F4FE6CF80911701882341F0853041F038
:101A80008091E80083FFBCCF81E0089582E0089553
:101A900083E00895982F973028F08F708093E900A5
:101AA00081E008959093E900242F762F50E0981755
:101AB00031F07091EC002091ED005091F00021FD8B
:101AC00002C09F5FE8CF3091EB003E7F3093EB0088
:101AD0003091ED003D7F3093ED003091EB003160AF
:101AE0003093EB007093EC002093ED005093F000E6
:101AF0002091EE0027FDE5CF80E008958091180148
:101B000087FF13C08091E80082FF06C08091E80043
:101B10008B778093E80004C0809117018111F2CF88
:101B20000895809117018823D9F38091E80080FF00
:101B3000F8CF8091E8008E77ECCF2091E4003091CF
:101B4000E50085E69091EC0090FF06C09091E800DA
:101B500090FF06C080E008959091E80092FDFACFD2
:101B600090911701992391F0953091F09091EB00AD
:101B700095FD10C04091E4005091E5002417350711
:101B800009F381509A01F1F684E0089582E0089506
:101B900083E0089581E008950F931F93CF93DF931F
:101BA0004BD052D0C8EDD0E088818F778883888170
:101BB0008068888388818F7D888319BC1092170183
:101BC00010921301109215011092140100EE10E012
:101BD000F80180818B7F808388818160888342E3E4
:101BE00060E080E057DFE1EEF0E080818E7F80836F
:101BF000E2EEF0E080818160808380818860808374
:101C0000F80180818E7F8083888180618883DF9165
:101C1000CF911F910F910895E8EDF0E080818F7EC4
:101C20008083E7EDF0E080818160808384E082BF83
:101C300081E080931601B0CFE8EDF0E080818E7FE7
:101C400080831092E20008951092DA001092E10071
:101C500008951F920F920FB60F9211242F933F9366
:101C60004F935F936F937F938F939F93AF93BF93A4
:101C7000EF93FF938091E10082FF0AC08091E20020
:101C800082FF06C08091E1008B7F8093E10003D248
:101C90008091DA0080FF18C08091D80080FF14C0C6
:101CA0008091DA008E7F8093DA008091D90080FFE6
:101CB0008AC080E189BD82E189BD09B400FEFDCF03
:101CC00081E080931701E9DB8091E10080FF18C07B
:101CD0008091E20080FF14C08091E2008E7F8093AB
:101CE000E2008091E20080618093E2008091D80060
:101CF00080628093D80019BC85E080931701CBD116
:101D00008091E10084FF28C08091E20084FF24C01C
:101D100080E189BD82E189BD09B400FEFDCF8091DB
:101D2000D8008F7D8093D8008091E1008F7E8093D2
:101D3000E1008091E2008F7E8093E2008091E200DA
:101D400081608093E20080911301882309F440C0F0
:101D500084E0809317019FD18091E10083FF22C02E
:101D60008091E20083FF1EC08091E100877F809315
:101D7000E10082E080931701109213018091E1004D
:101D80008E7F8093E1008091E2008E7F8093E2005D
:101D90008091E20080618093E20042E360E080E0B5
:101DA00079DE79D1FF91EF91BF91AF919F918F91A2
:101DB0007F916F915F914F913F912F910F900FBE47
:101DC0000F901F90189519BC1092170167DB7CCFFC
:101DD0008091E30087FD02C081E0BBCF83E0B9CFF3
:101DE0001F93CF93DF93CDB7DEB7AA970FB6F894C2
:101DF000DEBF0FBECDBFE8E1F1E08091F10081933D
:101E000021E0E032F207C9F752DB8091E80083FF5E
:101E100010C08091180190911901953009F4D8C033
:101E200000F5913009F48BC008F461C0933009F4D7
:101E300086C08091E80083FF0AC08091E800877F18
:101E40008093E8008091EB0080628093EB00AA967B
:101E50000FB6F894DEBF0FBECDBFDF91CF911F91BB
:101E60000895983009F4ECC0993009F4F6C0963022
:101E700001F780588230E8F680911A0190911B0199
:101E80008C3D23E0920709F0C6C083E08A838AE292
:101E900089834FB7F894DE01139620E03EE051E2CB
:101EA000E32FF0E050935700E49120FF03C0E29548
:101EB000EF703F5FEF708E2F90E0EA3008F4A9C01A
:101EC000C7968D939D932F5F243151F74FBF80911B
:101ED000E800877F8093E8006AE270E0CE01019617
:101EE0001ADD8091E8008B778093E800A2CF8038DC
:101EF00099F0823809F09DCF80911C018F70873056
:101F000008F097CF8093E9008091EB0085FB88274C
:101F100080F91092E90006C080911401909115019A
:101F2000911182609091E800977F9093E8008093F0
:101F3000F1001092F1008091E8008E7732C0282FD6
:101F40002D7F09F076CF8823E9F0823009F071CF38
:101F500080911A01811120C080911C018F702FEF98
:101F6000280F263008F065CF8093E9002091EB0020
:101F700020FF12C09330C9F48091EB0080628093FF
:101F8000EB000AC080911A01813009F052CF9330E2
:101F900009F080E0809315011092E9008091E8003B
:101FA000877F8093E800AADD44CF9091EB00906199
:101FB0009093EB0021E030E001C0220F8A95EAF710
:101FC0002093EA001092EA008091EB008860D7CF5E
:101FD00081112FCF10911A011F778091E300807833
:101FE000812B8093E3008091E800877F8093E80055
:101FF00085DD8091E80080FFFCCF8091E300806860
:102000008093E30083E0111101C082E08093170107
:1020100010CFC09656CF60911C0170911D01AE018A
:102020004F5F5F4F9BDBBC01892B09F402CF90917E
:10203000E800977F9093E80089819A81CBDC51CFAB
:10204000803809F0F6CE8091E800877F8093E80021
:10205000809113018093F1006ECF8111EACE9091AF
:102060001A01923008F0E5CE8091E800877F8093D6
:10207000E8009093130142DD80911301882329F039
:1020800084E0809317010BDAD4CE8091E30087FDC2
:10209000F7CF81E0F6CF0895CF9380911701882381
:1020A00091F0C091E900CF708091EC0080FD0DC0EF
:1020B00080E0C82B1092E9008091E80083FD90DE5B
:1020C000CF70C093E900CF91089580E8F2CF97FBDD
:1020D000072E16F4009406D077FD08D00BD007FC2D
:1020E00005D03EF4909581959F4F08957095619528
:1020F0007F4F0895AA1BBB1B51E107C0AA1FBB1F3E
:10210000A617B70710F0A61BB70B881F991F5A9583
:10211000A9F780959095BC01CD010895F894FFCF63
:00000001FF
