:100000000C94230A0C94330A0C94330A0C94330A8C
:100010000C94330A0C94330A0C94330A0C94330A6C
:100020000C94330A0C94330A0C94290E0C94330A62
:100030000C94330A0C94330A0C94330A0C94330A4C
:100040000C94330A0C94330A0C94330A0C94330A3C
:100050000C94330A0C94330A0C94330A0C94330A2C
:100060000C94330A0C94330A0C94330A0C94330A1C
:100070000C94330A0C94330A0C94330A0C94330A0C
:100080000C94330A0C94330A0C94330A0C94330AFC
:100090000C94330A0C94330A0C94330A0C94330AEC
:1000A0000C94330A0C94330A0C94330A2403500042
:1000B0004F004B004B0045004E00200043004F0016
:1000C0004E00540052004F004C004C0045005200BE
:1000D00000001C0348004F0052004900200043006C
:1000E0004F002E002C004C00540044002E00000055
:1000F000040309040902290001010080FA0904002F
:10010000000203000000092111010001225600072E
:1001100005020340000507058103400005120100A8
:1001200002000000400D0F920000010102000105D5
:10013000010905A10115002501350045017501954D
:1001400010050919012910810205012507463B0107
:100150007504950165140939814265009501810195
:1001600026FF0046FF0009300931093209357508BC
:10017000950481020600FF0920950181020A2126CB
:1001800095089102C000000000000000000000007F
:10019000000000000000000000000000000000005F
:1001A000000000000000000000000000000000004F
:1001B000000000000000000000000000000000003F
:1001C00000000000000000000000000000008008A7
:1001D000010000000000000000000000000000001E
:1001E0000000000000000000000000000900000006
:1001F0000200005001001042480000000000000012
:10020000000000000000000000F8010440000000B1
:100210000000002802000440000020020400020048
:1002200000000000002024042102084488101088E7
:1002300010BA8F40048008012282888228844014EA
:10024000091009481022908804102210010800406B
:10025000004000010000010200503D000024002089
:100260000020202802010001200280024580042095
:10027000200000021000000000000000000000004C
:1002800000B86A00000000030000828228002050AD
:100290008500101000094002000400000000020167
:1002A00000102000020000007AA8F4388000800AC4
:1002B00000445428420002051080444229201110B5
:1002C00001000100000000008804002040040040FC
:1002D000B475DD7D0CFAEE05FEF7018188A028409B
:1002E0004410100840050004000010000000201019
:1002F00000000808004004006FD557699AD5B7FF81
:1003000075AB5F2A220A8014014585201540220121
:1003100088000000212000000000020200608088A8
:10032000DAAAEA59366F7DF5FFFF7E808820250026
:100330002810200A801008800020004900000400D6
:100340000180000024B001809DAF95B7DADADFAFFD
:10035000AADAFF2B520A1049418504402504000007
:1003600000080200000000441020000000EC20C043
:10037000E63A67DD267577A95AA5DA870440410079
:1003800014209012004042080000200000080000E5
:100390000000008000AA01A0BB6DDDABDACE5DF7E6
:1003A000EFAFFA5D911214AA820401488908100087
:1003B0004400000008800001000140080075077437
:1003C000EB7A6A57B576AFADBAFAE63F04408000E3
:1003D00010905405208200800004000801002000D5
:1003E0000000000000CD1AA8D2D4D6EA6AD5D7DB27
:1003F00056AB2DBF500A25AA44050010022000204C
:1004000000800801000008000820040008A4FDD7AF
:10041000B737EF2B9BD65EAFAA545B7F02209000CC
:1004200010205185800800040000000020100020EA
:10043000020800810040D7BEA6DCAA6A55F5AB1AB7
:1004400000D0EEFC4809204A0509000028000801F8
:1004500000000000000001008000002000C0AA5140
:100460002D23DD6B5557A35A1000B5F5010001008F
:1004700020000091000000002022009004000004F1
:10048000000040004000A8B65A7DB3D29E2A001555
:1004900000007AFD2B0080948840000004000100D9
:1004A00004004404000880000000040008087435BB
:1004B000424B4D93120000000402A8D30304000035
:1004C0000200041001020000010000000000100002
:1004D000018000080000682CE0B602A005000000C2
:1004E0000000F0F7034010A4000440044020001076
:1004F00000000000000001004008000002020000AF
:100500005CDB0100000004000020F4E607000000AE
:1005100010010000000080040080000020000000A6
:100520000000808000000100D03600000000800044
:10053000410858AD07000001008000801000040051
:10054000800810010020004008009023004000882F
:1005500000001000008800080002B4DB070108401A
:1005600000208000000000002000001001000811A1
:1005700000027C0780000002000000024802000028
:100580000000A8AE0710010008001000000841009C
:1005900001000000000800000020D0C60700400055
:1005A00020000120020000020080F8DA0F00500055
:1005B0008000001002020020000002001000020073
:1005C00080F0394D1D080800000800000000900070
:1005D0004100803E0F0402010008000440000000BA
:1005E00000202000000040001158B3BE3B00000076
:1005F0000800A0FF0F000020101000AB0F414810B2
:10060000010002000000000410080004028000083D
:1006100000B86BD7348000400201FFFF7F404002EA
:100620000000486D0F000102100000011040100191
:1006300000010040000000000054DBFE1F1000021B
:1006400000F8BDB5FD111400000001B50E28940896
:10065000008040000000000002000000401020FF69
:10066000FF3F35850A0200000077F7FFFF034105D1
:100670000042147D9F800022000410800408004086
:10068000000082000000E8749BCA1E000080430046
:10069000FDEEBF5BFF4714288410C0AB1E12520052
:1006A0000101000000004200000020001000586D11
:1006B000F6B53B867D4211F8B77DA5D6E81F41010E
:1006C0000044756D9F40000910000000000200000A
:1006D000201000080080B8DB4BEF2A5DABFFA2B70B
:1006E000FEABEEFDB71F14AA2011D87D1E14150015
:1006F000004004100000000408020880001050AE02
:100700009ABA3A4BF7D57FFD6BDABB57CD5B410008
:1007100088846EF79E0040000000000441001040F5
:10072000020002000800A039ED5A5DAD6ABFDFD6B5
:10073000CAB62EF4BF3E94AA2220B4BF1E520900AE
:10074000010200011080000000000000000060CBEA
:10075000BBA7AE56F777B52AF55D4109BDBF00408E
:100760004405D9D55A000004202040000020000094
:1007700000800010000080B66CD7D3A956ADAAF651
:100780005F372A226F7EAA1A09506CBF3E9500017E
:100790000800100000008008002000012288085D89
:1007A0005DB7AA76EBDFDE9DEA428988B77E4042DC
:1007B000500974D03D00000002000200010808004A
:1007C0002002000000000054B3D66D55BBAB6B6B2C
:1007D000179424A2EDDD2A090580EC7F3D02080074
:1007E000000200400002004002004000000000F053
:1007F0006EAB55ADE6D6BD5A00248248DBFA1450E4
:10080000A81259D5BA0002400020000820000000BC
:100810000000024000000080D5D675ADBA574F04E5
:1008200080802882BAFD42050148EA7D3D40800073
:100830000000000200000102000000100040100053
:100840005E63554DD7500D0002508228D1FB1150E8
:10085000AA90B4D63E1000104000080008004000E6
:100860002010000024100000B0A3D14A15400B0056
:1008700020002842A26A45050100ECED7C00000042
:1008800008080200002000200800400400000401C5
:100890004063290B000000810040810860F713507D
:1008A00000405AB57D001002000000010201000066
:1008B00002020800000000100000C002000000203A
:1008C00000002A02A0FB47050808F5EEFA00000028
:1008D0000100400000001000008000000000000047
:1008E00000000000000040000010000060F70D0054
:1008F0000281AEBAFE210000004100200010020477
:1009000000000080040800000200000000880000D1
:1009100000040140A2D65F4200C07DD7FA01020068
:100920002010000000000040001000100000218096
:10093000000008404400000010010000A0F73E0045
:1009400040B8AAFD7E070C1101000400200400003D
:1009500080004004400000089000001000000004E7
:1009600002001000E0F7D700A8EFDFFFFC1F5A00DD
:100970000000000108004000000008000000000224
:10098000000081040000104100000001FCEDFF0B9D
:1009900056B56AABF5B71E00100000400001000814
:1009A00021881C000020040000100000004200000C
:1009B0000080009056EB569FFE6E77DFFAFDEBFC51
:1009C0007F842000008008C0DF03EA0111000100DD
:1009D000040000000800000000200000FCD66FF5B5
:1009E0004BFB6DB4FEB7BFB76D000008000000629E
:1009F0007D03AB02000040000100100082000000F7
:100A00000001080056EBFB5BFDADDAEF797BFDEAF8
:100A1000D6030800102000FCD7E2564F000000402B
:100A2000800004020000081111004004C0F6DFFE3F
:100A3000AB56777BFDDFEFF7EFFEF7FFFFFFFF9B86
:100A4000BE5FFD14C0080010008000800008020096
:100A50000010000040E7F677FFBBDDEEFAFFFE5B1B
:100A6000B5DD7FFFFFFFEB776BB5A5FBFF800000D7
:100A700000200020000000000000004040EDBFDD2D
:100A800055EFB7DBFDFDFFF3EE2EB5FFF7BFB4D595
:100A9000B75E436F7B00400410048000408000007C
:100AA0000004020040D7FFFFFFFFFF76F57FA8D6C6
:100AB000D7D66DAD5EB5EFBABE55E1FD1E00100094
:100AC000040000081000801044002002C05640922C
:100AD0005428D5DF15D5D575ED7ED7F5F55FBD96D4
:100AE000335F41B703000000000120000000000058
:100AF0000000002040B5BFEFEFEFBD6AFD7F6AEB5D
:100B0000D6565DBBDFAAB5BB6ED5C0FD0310020093
:100B1000000002000208200000000000C4E7FFBD42
:100B20005AB5D6FFFDFFFFB5B7D6757D756FB7B661
:100B3000BB9E8317000000200180004000000800D9
:100B40000244040040EDAFEBEDDB7D55F5AB556B9A
:100B5000EA72DDCAAE55B59A2B2B7D1A00800002D1
:100B6000002000040001014420010002C0F77B5D69
:100B70005BB6D6FFFD7EFFF3D7AEB5FFFBBEABBBCA
:100B80007E77AA1500008000200080002000000071
:100B900000004080FEEFAFEBB6DB6DFBFAEB555685
:100BA000ED420A0000000054AB82550B20002000EB
:100BB0000002100008000000000000205CE56E5DEF
:100BC0005555DB6FFDBFB76AD7000000000000B0CD
:100BD000BB05550508100000000000200220800021
:100BE00000800000F2FBBBABEEB676B5FD76AAF551
:100BF00076000000000000C06E036A01020002805F
:100C00000410000000041010441000084CE56F07A9
:100C100059DBD5EEFA2F552828004000000020802F
:100C20008100B4400080000880000104000102003F
:100C300000008800E06FDF01AAB676ABFD0D1A0058
:100C4000004010000400020200800000000080004C
:100C5000000020000000000000000000A0EA6B007F
:100C600000E8CD7EBD0304000008041041440000EC
:100C70000020000800082000000000802000000480
:100C800001040000A0F51F000080B6D5FD030000A0
:100C900000000000000000000008000020000080AC
:100CA00040040020080001012080228460EFAD1084
:100CB00000807E7BFD211000000100040000201058
:100CC00044000000080000201040840400102000B0
:100CD00000008400A0F5070A010055D7FA000210B1
:100CE00011000000000000000000002101000004CD
:100CF00002C17107000200400840291268FB52201F
:100D00000010DAFA7E0000010010810021020404C4
:100D100001021000000892FFFDE7A9CD1DC00F10D1
:100D200000088040C1F6854A8A40FA567D000000DE
:100D30000000200000200100808004000080C0AA84
:100D4000B7A6D98AD7B00A0400A12A0AB4BB118079
:100D5000200854DD3D00000080000000000000017C
:100D600010200004000040776D67B55AED4FAD00CC
:100D7000000080D0F7FBA22A0451F5753D10421007
:100D80002100082002000000000000000000A0DD9B
:100D900056E3ABAE76D7FF5F11545582FEFD04805B
:100DA0001084ACEE3A010000001001008008002021
:100DB00000000041042040B5BD5355D9EBEBAA76A5
:100DC0002F920054D5F554554211D8FB3E00000037
:100DD0000000000410002200020040000008C06370
:100DE000E9B86B356DD7FFADFE45AA40BD7C9000DC
:100DF0000840F5BF3C2500420402000000800002CC
:100E0000200201000000BADEAEEC566BBB9BDAFF9D
:100E1000AB3F24156B7F45AA2015ACEA3D8024002A
:100E2000000000810000000000200010408057B545
:100E30006B57AB56EB5E25AAFFDA89C4AE3E102491
:100E40000A80785D9D1400008040200000040000AE
:100E50000000000004000AA5ACED5E4DEBEBDB6D7D
:100E6000E8BFBF5ABBBF42914012AAB31E40090857
:100E70000000040008014010020000000000052CE2
:100E800079B3B55A5B56B75A17F5EBF5AD1714049D
:100E90000A40DADE5E09008108100000004004000C
:100EA00020041042002000E857DD389A56DB68F72E
:100EB0007D4BFF5FEF5D41514005B4751D2025005E
:100EC000000400480000008000000400000000B79B
:100ED000AA763685D4A20254EB76A9F6E90F14045B
:100EE0000050616D9F04000000010000000000013F
:100EF0000080000008008054D72B2C0000800100E7
:100F0000B6DD7B097FAD40110000885D1E484902B7
:100F1000400082000804002080200008021000AD7C
:100F20009F0E00000000010040B5EEF7EF071584AA
:100F3000004842751F0100280200200080002000A8
:100F400008080081000082666803000000000000BD
:100F500000E8B5BADA024001480010AD0F544A0269
:100F6000008000080100010800004000580020AD8A
:100F7000B7020040041040000000EDEF77002004AD
:100F8000000004BB0E000000000000000040000252
:100F900000000000524000D75D0300104004082408
:100FA000020020591F0000410000A1B60F40490077
:100FB0001008004000000000420004002A10807663
:100FC000A9838800000002002000008400000200C5
:100FD000001280BA8F0000220000000120101000D3
:100FE00000040040440000D55B0300000000000046
:100FF00000020000008000000000D0AF07088A0057
:10100000040009000002048010000110A80084B749
:10101000D60300000080000004000000000820004B
:101020001000F85F0F0020000102001000000020F7
:10103000004000001000016D7F8100844800000422
:101040000120420000000000040054AD0700000031
:10105000802000000000010200000001C000003FED
:101060005000200000040001C07F000880000844F8
:1010700000016CEB0702000000004000020080004D
:10108000000100000008802A00200000000010007D
:10109000BED60182080000000040D0EE078000109C
:1010A0000000108040200000081020000200800D89
:1010B00000000820040001C0B5B5230001000101B3
:1010C0000000B0D50310004402000120000410808D
:1010D000000004200040200000040000002100A0C7
:1010E000AAAAC6F31E080000800068EB8300100166
:1010F0001044000410000020400000000000080020
:10110000020000020000000240BF5E539B3B00044F
:101110002210D6FB1100002084000000010002080C
:101120000080000020000290408080000100F80054
:10113000A06AE9D395B6E39B0000BDFA050102045D
:101140000100001204018000082400810808000446
:101150000010080020D05723DFABBF6AB5ED5E1E3C
:1011600000E0EBFE2014A040100920402090000079
:10117000000040100000000000000040806FEDFE05
:101180005AAB6A5B9DD6AFFB955E7DDD924008123F
:1011900044208008020200000000080000800000D7
:1011A0000002001040DB5AAB55BDBD6B716DD7AD71
:1011B0006EB7AF7F0012A1000108158190002008D2
:1011C0008100000000200000200000047025B56DA3
:1011D000BB5665A755D75DF775EDD53792400454DA
:1011E000000140240008000210000000000020025E
:1011F0000100440090AA6A5B63B5DF56577557BF7C
:10120000DFBEEA1D0004110148200108122101007F
:101210000008014444080040000000000000004AAB
:10122000AD6BB55EAAD6DF6875AB7E475511404001
:1012300001048820000008000000400000000400B5
:1012400008820000000000B06ADA5AB55ED56A5B19
:1012500095DAEE1100A0140454200282229240403C
:10126000040000000000000000200080000000805A
:101270005AB7EA6A94B6DDEED6F6B584AA0A8010AB
:1012800000092010880004104042101000000002E5
:101290008000000000000000D5EAAB78326D57B541
:1012A000BDB51E200040128244840801210821019E
:1012B000000000040440000002009008888810002C
:1012C000A8AAD6250C53AD02D5564109491248208B
:1012D000002000440842000400000000E008442010
:1012E00000000000000000027805BD390000800504
:1012F0000080044000000109120122018000244006
:10130000040002000A0000000000020002000020A9
:101310005407D500000000020010500A5200488017
:101320000000081021240111404800015A0000006B
:101330002082008000000000B43C280001000081F1
:101340000000022000000022200080400400400035
:1013500001000000A50001000900000280008400D7
:10136000AC6A000000001100000480828A4000087E
:101370000420200400001444080020600920404498
:101380000000000000480000F837000020240000A2
:1013900020002028200800010108041091400011BD
:1013A0000001084856081000001040402000008846
:1013B000401D00110000002004800000090044408E
:1013C0000002000400104000490002A0A00000003C
:1013D00000011000000000000000440002010000B5
:1013E000000008000000000040000040040412401B
:1013F000001000402A000000000004100800100047
:10140000000000000000880400020000000000004E
:10141000080000000000000A080000004A00000464
:101420004000000400100102020000002000000043
:10143000002000000082000000802000000000006A
:1014400001000001920011241FBECFEFDAE0DEBFE1
:10145000CDBF21E0A0E0B1E001C01D92A032B207F3
:10146000E1F777D15BC60C94000084B7877F84BF17
:101470000FB6F894A8958091600088618093600011
:10148000109260000FBE80E890E00FB6F894809351
:101490006100909361000FBEBFC30895089542E3B9
:1014A00060EC82E0F7D242E361EC81E0F3C20895A0
:1014B000CF93DF93EC0198E0FE01292F11922A953A
:1014C000E9F780E88B838C838D838E839A83809168
:1014D00008019091090118161906A4F488E0EBE0C0
:1014E000F1E0DE0101900D928A95E1F7809108010B
:1014F0009091090101979093090180930801DF9170
:10150000CF91089580910A01833009F4A4C048F472
:10151000813009F477C008F447C084E080930A0161
:1015200007C0853009F4C1C008F4A0C0863039F383
:1015300080910A01823068F1809104019091050147
:10154000209102013091030148E2429FF001439F44
:10155000F00D11249C0197FF02C0295F3F4F43E02B
:10156000359527954A95E1F7E20FF31FEB57FE4FAC
:10157000E491F0E068E070E0AAD502C0F595E79547
:101580008A95E2F7E0FF05C088819981846099839C
:10159000888388E0FE01ABE0B1E001900D928A956E
:1015A000E1F782E090E0A7CF8091060190910701DA
:1015B000853691058CF0109207011092060181E0AA
:1015C00080930A0180910601909107010196909302
:1015D000070180930601ACCF8931910519F0823360
:1015E000910531F488819981806399838883EACF5A
:1015F0008B34910519F08436910521F78881998102
:101600008460F3CF80910601909107018A3F910594
:10161000F9F4109207011092060110920501109240
:101620000401109203011092020182E080930A01EA
:1016300080910601909107018B34910521F0863944
:10164000910509F0BFCF8881998180619460CDCFE9
:101650001B821C82EDCF809102019091030187379C
:10166000910514F485E05ACF86E058CF80910401AB
:10167000909105012091020120FF11C026E02A83EC
:10168000019790930501809304018091040190914A
:10169000050101978E33914030F482E03FCF22E084
:1016A0002A830196EECF83E039CF84E08A8380914C
:1016B000020190910301019690930301809302012E
:1016C000ECCFCF93DF93CDB7DEB728970FB6F89462
:1016D000DEBF0FBECDBF80911701843089F582E057
:1016E0008093E9008091E80082FF12C08091E800B9
:1016F00085FF09C050E040E067E070E0CE01019650
:10170000BCD08111F7CF8091E8008B778093E800FF
:1017100081E08093E9008091E80080FF11C0CE0154
:101720000196C6DE50E040E068E070E0CE01019630
:1017300056D08111F7CF8091E8008E778093E80032
:1017400028960FB6F894DEBF0FBECDBFDF91CF91C4
:1017500008958BDE7894B5DF9FD4FDCF292F3327F2
:101760002330310521F158F42130310599F0223030
:101770003105C1F090E080E030E020E00FC0213280
:10178000310541F122323105A9F786E590E02FE2DB
:1017900031E004C082E190E02DE131E0FA013183D3
:1017A0002083089589E290E024EF30E0F7CF992775
:1017B0008130910561F028F00297E1F6ECEAF0E063
:1017C00002C0E0EFF0E0849190E09F01E7CFE2ED0E
:1017D000F0E0F9CF89E090E026E031E0DFCFAF9292
:1017E000BF92CF92DF92FF920F931F93CF93DF931D
:1017F0006C01EB018A01A1D1F82E811124C00115E1
:10180000110539F0F80180819181C81BD90BC80EF0
:10181000D91EB12CA12C2097B1F08091E80085FD54
:1018200022C08091E8008E778093E80035D40115BE
:101830001105A1F0F80180819181A80EB91EB18235
:10184000A08285E0F82E8F2DDF91CF911F910F910F
:10185000FF90DF90CF90BF90AF9008956ED1882316
:10186000D1F2F82EF0CFF60181916F018093F10053
:101870002197FFEFAF1ABF0ACECFAF92BF92CF92A0
:10188000DF92FF920F931F93CF93DF936C01EB01D5
:101890008A0153D1F82E811124C00115110539F0A8
:1018A000F80180819181C81BD90BC80ED91EB12CBB
:1018B000A12C2097B1F08091E80085FD22C0809195
:1018C000E8008B778093E800E7D301151105A1F0BC
:1018D000F80180819181A80EB91EB182A08285E0B5
:1018E000F82E8F2DDF91CF911F910F91FF90DF90F8
:1018F000CF90BF90AF90089520D18823D1F2F82ED9
:10190000F0CF8091F100F60181936F012197FFEFF5
:10191000AF1ABF0ACECFFC0180911E0190911F012A
:1019200086179707A0F06115710529F49091E800DA
:101930009E779093E80090E06115710551F4911144
:1019400008C08091E80082FF35C080E00895BC01A6
:10195000F2CF809117018823C9F18530C9F18091B8
:10196000E80083FD31C08091E80082FDEACF8091DC
:10197000E80080FFE1CF2091F3008091F200322F48
:10198000282F6115710519F02034310558F091E0C8
:101990002034310509F090E02091E8002E77209363
:1019A000E800CACF81918093F100615071092F5FE7
:1019B0003F4FE7CF80911701882341F0853041F0F8
:1019C0008091E80083FFBDCF81E0089582E0089513
:1019D00083E00895FC0180911E0190911F018617FC
:1019E0009707A0F06115710529F48091E8008E77C2
:1019F0008093E80090E06115710551F4911108C0E1
:101A00008091E80082FF36C080E00895BC01F2CFEB
:101A1000809117018823D1F18530D1F18091E800C0
:101A200083FD32C08091E80082FDEACF8091E8001A
:101A300080FFE1CF2091F3008091F200322F282F18
:101A40006115710519F02034310558F091E020340A
:101A5000310509F090E08091E8008E778093E800EE
:101A6000CACF84918093F1003196615071092F5F44
:101A70003F4FE6CF80911701882341F0853041F038
:101A80008091E80083FFBCCF81E0089582E0089553
:101A900083E00895982F973028F08F708093E900A5
:101AA00081E008959093E900242F762F50E0981755
:101AB00031F07091EC002091ED005091F00021FD8B
:101AC00002C09F5FE8CF3091EB003E7F3093EB0088
:101AD0003091ED003D7F3093ED003091EB003160AF
:101AE0003093EB007093EC002093ED005093F000E6
:101AF0002091EE0027FDE5CF80E008958091180148
:101B000087FF13C08091E80082FF06C08091E80043
:101B10008B778093E80004C0809117018111F2CF88
:101B20000895809117018823D9F38091E80080FF00
:101B3000F8CF8091E8008E77ECCF2091E4003091CF
:101B4000E50085E69091EC0090FF06C09091E800DA
:101B500090FF06C080E008959091E80092FDFACFD2
:101B600090911701992391F0953091F09091EB00AD
:101B700095FD10C04091E4005091E5002417350711
:101B800009F381509A01F1F684E0089582E0089506
:101B900083E0089581E008950F931F93CF93DF931F
:101BA0004BD052D0C8EDD0E088818F778883888170
:101BB0008068888388818F7D888319BC1092170183
:101BC00010921301109215011092140100EE10E012
:101BD000F80180818B7F808388818160888342E3E4
:101BE00060E080E057DFE1EEF0E080818E7F80836F
:101BF000E2EEF0E080818160808380818860808374
:101C0000F80180818E7F8083888180618883DF9165
:101C1000CF911F910F910895E8EDF0E080818F7EC4
:101C20008083E7EDF0E080818160808384E082BF83
:101C300081E080931601B0CFE8EDF0E080818E7FE7
:101C400080831092E20008951092DA001092E10071
:101C500008951F920F920FB60F9211242F933F9366
:101C60004F935F936F937F938F939F93AF93BF93A4
:101C7000EF93FF938091E10082FF0AC08091E20020
:101C800082FF06C08091E1008B7F8093E10003D248
:101C90008091DA0080FF18C08091D80080FF14C0C6
:101CA0008091DA008E7F8093DA008091D90080FFE6
:101CB0008AC080E189BD82E189BD09B400FEFDCF03
:101CC00081E080931701E9DB8091E10080FF18C07B
:101CD0008091E20080FF14C08091E2008E7F8093AB
:101CE000E2008091E20080618093E2008091D80060
:101CF00080628093D80019BC85E080931701CBD116
:101D00008091E10084FF28C08091E20084FF24C01C
:101D100080E189BD82E189BD09B400FEFDCF8091DB
:101D2000D8008F7D8093D8008091E1008F7E8093D2
:101D3000E1008091E2008F7E8093E2008091E200DA
:101D400081608093E20080911301882309F440C0F0
:101D500084E0809317019FD18091E10083FF22C02E
:101D60008091E20083FF1EC08091E100877F809315
:101D7000E10082E080931701109213018091E1004D
:101D80008E7F8093E1008091E2008E7F8093E2005D
:101D90008091E20080618093E20042E360E080E0B5
:101DA00079DE79D1FF91EF91BF91AF919F918F91A2
:101DB0007F916F915F914F913F912F910F900FBE47
:101DC0000F901F90189519BC1092170167DB7CCFFC
:101DD0008091E30087FD02C081E0BBCF83E0B9CFF3
:101DE0001F93CF93DF93CDB7DEB7AA970FB6F894C2
:101DF000DEBF0FBECDBFE8E1F1E08091F10081933D
:101E000021E0E032F207C9F752DB8091E80083FF5E
:101E100010C08091180190911901953009F4D8C033
:101E200000F5913009F48BC008F461C0933009F4D7
:101E300086C08091E80083FF0AC08091E800877F18
:101E40008093E8008091EB0080628093EB00AA967B
:101E50000FB6F894DEBF0FBECDBFDF91CF911F91BB
:101E60000895983009F4ECC0993009F4F6C0963022
:101E700001F780588230E8F680911A0190911B0199
:101E80008C3D23E0920709F0C6C083E08A838AE292
:101E900089834FB7F894DE01139620E03EE051E2CB
:101EA000E32FF0E050935700E49120FF03C0E29548
:101EB000EF703F5FEF708E2F90E0EA3008F4A9C01A
:101EC000C7968D939D932F5F243151F74FBF80911B
:101ED000E800877F8093E8006AE270E0CE01019617
:101EE0001ADD8091E8008B778093E800A2CF8038DC
:101EF00099F0823809F09DCF80911C018F70873056
:101F000008F097CF8093E9008091EB0085FB88274C
:101F100080F91092E90006C080911401909115019A
:101F2000911182609091E800977F9093E8008093F0
:101F3000F1001092F1008091E8008E7732C0282FD6
:101F40002D7F09F076CF8823E9F0823009F071CF38
:101F500080911A01811120C080911C018F702FEF98
:101F6000280F263008F065CF8093E9002091EB0020
:101F700020FF12C09330C9F48091EB0080628093FF
:101F8000EB000AC080911A01813009F052CF9330E2
:101F900009F080E0809315011092E9008091E8003B
:101FA000877F8093E800AADD44CF9091EB00906199
:101FB0009093EB0021E030E001C0220F8A95EAF710
:101FC0002093EA001092EA008091EB008860D7CF5E
:101FD00081112FCF10911A011F778091E300807833
:101FE000812B8093E3008091E800877F8093E80055
:101FF00085DD8091E80080FFFCCF8091E300806860
:102000008093E30083E0111101C082E08093170107
:1020100010CFC09656CF60911C0170911D01AE018A
:102020004F5F5F4F9BDBBC01892B09F402CF90917E
:10203000E800977F9093E80089819A81CBDC51CFAB
:10204000803809F0F6CE8091E800877F8093E80021
:10205000809113018093F1006ECF8111EACE9091AF
:102060001A01923008F0E5CE8091E800877F8093D6
:10207000E8009093130142DD80911301882329F039
:1020800084E0809317010BDAD4CE8091E30087FDC2
:10209000F7CF81E0F6CF0895CF9380911701882381
:1020A00091F0C091E900CF708091EC0080FD0DC0EF
:1020B00080E0C82B1092E9008091E80083FD90DE5B
:1020C000CF70C093E900CF91089580E8F2CF97FBDD
:1020D000072E16F4009406D077FD08D00BD007FC2D
:1020E00005D03EF4909581959F4F08957095619528
:1020F0007F4F0895AA1BBB1B51E107C0AA1FBB1F3E
:10210000A617B70710F0A61BB70B881F991F5A9583
:10211000A9F780959095BC01CD010895F894FFCF63
:00000001FF
